:020000040800F2
:1000000000500020210200080D27000811270008D9
:1000100015270008192700081D2700080000000008
:100020000000000000000000000000005D29000842
:100030002127000800000000252A000825270008C5
:10004000C51E0008C51E0008C51E0008C51E000804
:10005000C51E0008C51E0008C51E0008C51E0008F4
:10006000C51E0008C51E0008C51E0008C51E0008E4
:10007000C51E0008C51E0008C51E0008C51E0008D4
:10008000C51E0008C51E0008C51E0008C51E0008C4
:10009000C51E0008C51E0008C51E0008C51E0008B4
:1000A000C51E0008C51E0008C51E0008C51E0008A4
:1000B000C51E0008C51E0008C51E0008C51E000894
:1000C000C51E0008C51E0008C51E0008C51E000884
:1000D000C51E0008C51E0008C51E0008C51E000874
:1000E000C51E0008C51E0008C51E0008000000004F
:1000F0000000000000000000000000000000000000
:1001000000000000000000005FF808F100B583B0B7
:1001100001F050FE304B314A1360314A1360314BCD
:10012000314A03E011681960043304322F498B42CD
:10013000F8D32A4B1A682E4B9A4204D1284B1A68DE
:100140002C4B9A4200D0FEE7234B2B4A13602B4ADC
:1001500013602B4B02E000221A600433294A9342B9
:10016000F9D3254B1B6813B9244B1B6803B1FEE779
:1001700001F02CFE01A8694601F0F6FD224B234D4B
:10018000ED1AAD10002404E01F4B53F824309847BB
:100190000134A542F8DC1E4B1E4DED1AAD100024B3
:1001A00004E01B4B53F8243098470134A542F8DC97
:1001B0000198009902F056F90546174B174CE41ABE
:1001C000A41004E0013C144B53F824309847002C51
:1001D000F8DC284601F0A4FDBABADECA000000200F
:1001E000BC00002000000020FC4B0008C0000020E4
:1001F0007856341232547698C000002050100020F7
:10020000C0000020541000204C0300084C030008DC
:100210004C0300084C0300084C0300084C03000882
:1002200008B5FFF773FF00BF00BEFEE71EF0040F26
:100230000CBFEFF30880EFF309807146364A104790
:100240002DE9F04182B007468846084C666BA56BE5
:10025000A46A074801F090FDCDF800803846214699
:1002600032462B4601F0B6FD00BEFEE700ED00E091
:10027000F44A000800BEFEE71EF0040F0CBFEFF3C7
:100280000880EFF309807146244A10472DE9F041B8
:1002900082B007468846084C666BA56BA46A07487F
:1002A00001F06AFDCDF800803846214632462B46E3
:1002B00001F090FD00BEFEE700ED00E0044B0008F9
:1002C0001EF0040F0CBFEFF30880EFF309807146B6
:1002D000134A10472DE9F04182B007468846084C82
:1002E000666BA56BA46A074801F046FDCDF8008057
:1002F0003846214632462B4601F06CFD00BEFEE733
:1003000000ED00E0104B000800BEFEE700BEFEE777
:1003100000BEFEE770470000410200088D020008A1
:04032000D5020008FA
:10032400FC4B000800000020C0000020FC4B00082B
:100334000000001000000010C00000205410002035
:08034400000000100000001091
:1003500010B5044600F072FE064BA3FB0020800996
:1003600000F014F94FF0FF302146002200F0DCF8D5
:10037000002010BDD34D621008B5074B1A6842F03B
:1003800010021A60032000F0BDF80F20FFF7E0FF15
:1003900002F0BEF8002008BD00200240024B1A689F
:1003A00001321A60704700BFC4000020014B18687A
:1003B000704700BFC400002010B582B00190FFF765
:1003C000F5FF0446FFF7F2FF001B019B9842F9D3AB
:1003D00002B010BD38B50446002800F0918090F8B6
:1003E000393013F0FF0F04D1002380F8383002F0C9
:1003F000D7F8022384F8393023681A6822F0020201
:100400001A6023681A6842F001021A60FFF7CEFFF3
:1004100005460BE0FFF7CAFF401B0A2806D9032058
:1004200084F83900002384F8383038BD23685A68CE
:1004300012F0010FEED05A6812F0010F51D0A269EC
:10044000012A01D0002200E08022E169012901D1C6
:1004500042F04002216A012901D142F02002616A82
:10046000012901D142F01002A16A012901D142F013
:100470000802E16A012901D142F00402196821F061
:10048000FC010A431A602368A168E26841EA02009D
:1004900022691043626910436268511E40EA0102FA
:1004A000DA6123681A6822F001021A60FFF77EFF02
:1004B00005460BE0FFF77AFF401B0A2806D9032008
:1004C00084F83900002384F8383038BD23685A682E
:1004D00012F0010FEED05B6813F0010F03D100237F
:1004E00002E0002300E001232BB10020E0630123A0
:1004F00084F8393038BD042384F83930012038BD00
:10050000012038BD00F00700064AD36823F4E063F9
:100510001B041B0C43EA002343F0BF6343F4003386
:10052000D360704700ED00E030B4164BDB68C3F3D6
:100530000223C3F10705042D28BF04251C1D062C2A
:1005400001D9033B00E00023012404FA05F5013D35
:100550002940994004FA03F3013B1A400A4300285A
:1005600006DA00F00F001201D2B2074B1A5407E06E
:100570001201D2B200F1604000F5614080F8002322
:1005800030BC704700ED00E014ED00E00138B0F140
:10059000807F0AD2064B5860F021064A82F8231069
:1005A0000020986007221A6070470120704700BF42
:1005B00010E000E000ED00E0042805D1054B1A68CA
:1005C00042F004021A607047024B1A6822F00402DB
:1005D0001A60704710E000E0F0B482B000263346A5
:1005E000D8E001249C400A682240A24240F0D18019
:1005F0004D68122D2DD00BD8022D27D003D85DB316
:10060000012D1ED035E0032D30D0112D1BD030E050
:10061000634FBD4220D008D8A7F58017BD421BD03C
:1006200007F58037BD4224D116E05E4FBD4213D09E
:1006300007F58037BD420FD0A7F58017BD4218D10E
:100640000AE0CE6815E0CE68043612E0CE680836BF
:100650000FE0CE680C360CE08D684DB1012D02D153
:100660000461082605E04461082602E0002600E057
:100670000426FF2A01D8044600E0041DFF2A01D801
:100680009D0002E0A3F10805AD0027684FF00F0CB4
:100690000CFA05FC27EA0C0706FA05F53D43256030
:1006A0004C6814F0805F74D03F4CA56945F001059B
:1006B000A561A46904F001040194019C9C08A71C95
:1006C0003A4D55F8277003F00305AD004FF00F0CBD
:1006D0000CFA05FC27EA0C07DFF8D8C0604517D0F4
:1006E0000CF5806C604510D00CF5806C604509D02D
:1006F0000CF5806C604502D14FF0030C0AE04FF01E
:10070000040C07E04FF0020C04E04FF0010C01E094
:100710004FF0000C0CFA05F53D430234234F47F827
:1007200024504C6814F4803F04D0214C25681543B4
:10073000256004E01E4C256825EA020525604C680A
:1007400014F4003F04D01A4C65681543656004E05A
:10075000174C656825EA020565604C6814F4801F33
:1007600004D0134CA5681543A56004E0104CA5689F
:1007700025EA0205A5604C6814F4001F04D00C4C57
:10078000E5682A43E26004E0094CE56825EA0202D4
:10079000E26001330F2B7FF624AF02B0F0BC70474C
:1007A0000000211000003110001002400000014044
:1007B00000040140000801400AB1016170470904CA
:1007C00001617047C3685940C160704730B583B05C
:1007D0000446036813F0010F00F09980B44B5B6886
:1007E00003F00C03042B0AD0B14B5B6803F00C033D
:1007F000082B1BD1AE4B5B6813F4803F16D04FF42F
:10080000003393FAA3F3AA4B1A684FF4003393FA18
:10081000A3F3B3FA83F303F01F0322FA03F313F0F5
:10082000010F74D06368002B71D1A5E26368B3F542
:10083000803F08D103F1804303F588331A6842F4FE
:1008400080321A6026E063B903F1804303F5043374
:100850001A6822F480321A601A6822F480221A6020
:1008600018E0B3F5A02F0CD103F18043A3F53C337E
:100870001A6842F480221A601A6842F480321A60C0
:1008800008E08B4B1A6822F480321A601A6822F44E
:1008900080221A606368EBB1FFF788FD054605E02A
:1008A000FFF784FD401B642800F268824FF4003398
:1008B00093FAA3F37E4B1A684FF4003393FAA3F331
:1008C000B3FA83F303F01F0322FA03F313F0010FCB
:1008D000E6D01CE0FFF76AFD054605E0FFF766FD80
:1008E000401B642800F24C824FF4003393FAA3F3C8
:1008F0006F4B1A684FF4003393FAA3F3B3FA83F300
:1009000003F01F0322FA03F313F0010FE6D123686B
:1009100013F0020F00F09080654B5B6813F00C0F32
:100920000AD0634B5B6803F00C03082B27D1604BA4
:100930005B6813F4803F22D1022393FAA3F35C4B4C
:100940001A68022393FAA3F3B3FA83F303F01F03A5
:1009500022FA03F313F0010F03D02369012B40F0B7
:100960001182534B196821F0F8016269F82090FA5E
:10097000A0F0B0FA80F082400A431A605CE023697C
:100980009BB3012292FAA2F3B3FA83F39B0003F123
:10099000844303F584031A60FFF708FD054605E06C
:1009A000FFF704FD401B022800F2EE81022393FAB8
:1009B000A3F33F4B1A68022393FAA3F3B3FA83F32A
:1009C00003F01F0322FA03F313F0010FE8D0384BB2
:1009D000196821F0F8016269F82090FAA0F0B0FAE5
:1009E00080F082400A431A6026E0012393FAA3F3C1
:1009F000B3FA83F39B0003F1844303F584030022DD
:100A00001A60FFF7D3FC054605E0FFF7CFFC401B5B
:100A1000022800F2BB81022393FAA3F3244B1A6845
:100A2000022393FAA3F3B3FA83F303F01F0322FA2A
:100A300003F313F0010FE8D1236813F0080F53D02C
:100A4000A3693BB3012393FAA3F1B1FA81F1194AE7
:100A500042F82130FFF7AAFC054605E0FFF7A6FCA7
:100A6000401B022800F29481022393FAA3F293FA26
:100A7000A3F20F4A526A93FAA3F3B3FA83F303F093
:100A80001F0322FA03F313F0010FE7D00120FFF751
:100A900093FC29E0012292FAA2F2B2FA82F200213A
:100AA000044B43F82210FFF781FC05460AE000BF23
:100AB0000010024080044242FFF778FC401B0228ED
:100AC00000F26881022393FAA3F293FAA3F2BB4ADD
:100AD000526A93FAA3F3B3FA83F303F01F0322FAE3
:100AE00003F313F0010FE7D1236813F0040F00F0B4
:100AF0009F80B24BDA6942F08052DA61DB6903F021
:100B000080530193019BAE4B1A6842F480721A60C5
:100B1000FFF74CFC054605E0FFF748FC401B642846
:100B200000F23A81A64B1B6813F4807FF4D0E3688F
:100B3000012B05D1A14B1A6A42F001021A6222E090
:100B400063B903F1804303F504331A6A22F001020A
:100B50001A621A6A22F004021A6214E0052B09D103
:100B6000964B1A6A42F004021A621A6A42F00102B3
:100B70001A6208E0914B1A6A22F001021A621A6A9C
:100B800022F004021A62E3684BB3FFF70FFC05463C
:100B900007E0FFF70BFC401B41F28833984200F25C
:100BA000FD80022393FAA3F293FAA3F3B3FA83F33B
:100BB00043F040035B09022B02D1804B1A6A01E02B
:100BC0007E4B5A6A022393FAA3F3B3FA83F303F03A
:100BD0001F0322FA03F313F0010FDAD028E0FFF726
:100BE000E5FB054607E0FFF7E1FB401B41F28833D8
:100BF000984200F2D580022393FAA3F293FAA3F36A
:100C0000B3FA83F343F040035B09022B02D16B4B31
:100C10001A6A01E0694B5A6A022393FAA3F3B3FA02
:100C200083F303F01F0322FA03F313F0010FDAD169
:100C3000E369002B00F0B680604A526802F00C02B3
:100C4000082A00F0B180022B6BD14FF0807393FA29
:100C5000A3F3B3FA83F39B0003F1844303F5840306
:100C600000221A60FFF7A2FB054605E0FFF79EFB96
:100C7000401B022800F29A804FF0007393FAA3F30E
:100C80004E4B1A684FF0007393FAA3F3B3FA83F351
:100C900003F01F0322FA03F313F0010FE6D1236AD6
:100CA000B3F5803F09D103F1804303F588335968D8
:100CB00021F40031A2680A435A60404B596821F47C
:100CC0007411206A626A02430A435A604FF08073CB
:100CD00093FAA3F3B3FA83F39B0003F1844303F580
:100CE000840301221A60FFF761FB044604E0FFF76A
:100CF0005DFB001B02285BD84FF0007393FAA3F34F
:100D00002E4B1A684FF0007393FAA3F3B3FA83F3F0
:100D100003F01F0322FA03F313F0010FE7D00020C2
:100D200049E04FF0807393FAA3F3B3FA83F39B0087
:100D300003F1844303F5840300221A60FFF736FBB6
:100D4000044604E0FFF732FB001B022832D84FF0C4
:100D5000007393FAA3F3194B1A684FF0007393FAD8
:100D6000A3F3B3FA83F303F01F0322FA03F313F0A0
:100D7000010FE7D100201EE001201CE003201AE053
:100D8000032018E0012016E0032014E0032012E005
:100D9000032010E003200EE003200CE003200AE013
:100DA000032008E0002006E0012004E0032002E028
:100DB000032000E0032003B030BD00BF001002405C
:100DC0000070004030B486B01F4D02AC28686968DE
:100DD000AA68EB680FC42B8AADF804301B4B5B6824
:100DE00003F00C02082A2AD103F470114FF4701298
:100DF00092FAA2F2B2FA82F221FA02F206A90A44A7
:100E000012F8102C13F4803F15D0104B596801F4E0
:100E100000314FF4003393FAA3F3B3FA83F321FACA
:100E200003F306A90B4413F8143C0948B0FBF3F094
:100E300002FB00F004E0074800FB02F000E0044879
:100E400006B030BC704700BFC44900080010024023
:100E500000127A0000093D0070B504460D46734B40
:100E60001B6803F007038B420BD2704B1A6822F009
:100E700007020A431A601B6803F007038B4240F025
:100E8000C480236813F0020F06D0694B596821F023
:100E9000F001A2680A435A60236813F0010F75D06D
:100EA0006368012B13D14FF4003292FAA2F2604A28
:100EB00011684FF4003292FAA2F2B2FA82F202F012
:100EC0001F0221FA02F212F0010F27D19FE0022B3C
:100ED00013D14FF0007292FAA2F2554A11684FF006
:100EE000007292FAA2F2B2FA82F202F01F0221FA22
:100EF00002F212F0010F11D18BE0022292FAA2F25B
:100F00004B4A1168022292FAA2F2B2FA82F202F07D
:100F10001F0221FA02F212F0010F7CD0444A5168FC
:100F200021F003010B435360FFF740FA0646636864
:100F3000012B0ED106E0FFF739FA801B41F288330E
:100F400098426AD83A4B5B6803F00C03042BF2D149
:100F50001CE0022B15D106E0FFF728FA801B41F2B6
:100F6000883398425BD8324B5B6803F00C03082B44
:100F7000F2D10BE0FFF71AFA801B41F28833984256
:100F80004FD82B4B5B6813F00C0FF3D1274B1B682A
:100F900003F00703AB420AD9244B1A6822F0070278
:100FA0002A431A601B6803F00703AB423BD1236856
:100FB00013F0040F06D01E4B596821F4E061E2687B
:100FC0000A435A60236813F0080F07D0184B5A6879
:100FD00022F46052216942EAC1025A60FFF7F2FE30
:100FE000134B5A6802F0F002F02393FAA3F3B3FA1A
:100FF00083F322FA03F30F4AD35CD8400E4B1860F8
:101000000F20FFF7A5F9002070BD012070BD012061
:1010100070BD012070BD012070BD032070BD032094
:1010200070BD032070BD012070BD00BF00200240D4
:1010300000100240204B00080C000020014B1868F3
:10104000704700BF0C00002008B5FFF7F7FF084B02
:101050005A6802F4E0624FF4E06393FAA3F3B3FA40
:1010600083F322FA03F3034AD35CD84008BD00BFE0
:1010700000100240304B000808B5FFF7DFFF084BB7
:101080005A6802F460524FF4605393FAA3F3B3FA30
:1010900083F322FA03F3034AD35CD84008BD00BFB0
:1010A00000100240304B00082DE9F04106460C4686
:1010B00090461D46FFF77AF90746B8F1000F2AD08F
:1010C0005BE0B5F1FF3F26D025B1FFF76FF9C01BFC
:1010D000A84220D933685A6822F0E0025A60336887
:1010E0001A6822F040021A60B36AB3F5005F09D1B2
:1010F00033681A6822F400521A6033681A6842F49E
:1011000000521A60012386F85130002386F85030CF
:101110000320BDE8F08133689B682340A342D0D10F
:101120000020BDE8F081B5F1FF3F26D025B1FFF7E3
:101130003DF9C01BA84220D933685A6822F0E0026A
:101140005A6033681A6822F040021A60B36AB3F535
:10115000005F09D133681A6822F400521A603368BC
:101160001A6842F400521A60012386F851300023B5
:1011700086F850300320BDE8F08133689B68234037
:10118000A342D0D00020BDE8F08100BF30B583B0CD
:1011900004461D4690F85100C0B2012840F0C380BB
:1011A000002900F0C280002A00F0C18094F850307D
:1011B000012B00F0BE80012384F85030122384F804
:1011C0005130002363652163A286E286E364A36451
:1011D000A363A387E387A36AB3F5005F09D12368FC
:1011E0001A6822F400521A6023681A6842F4005206
:1011F0001A60A368B3F5004F04D123681A6842F45B
:1012000080421A6023681A6812F0400F03D11A68EE
:1012100042F040021A60E368002B2CD1636813B1DE
:10122000E38E012B1AD12268236B591C21631B7892
:10123000D360E38E013BE38610E0204602210022CA
:101240002B46FFF731FF002875D12268236B591C0C
:1012500021631B78D360E38E013BE386E38E002B92
:10126000EBD1A36AB3F5005F33D123681A6842F467
:1012700080521A602DE0636813B1E38E012B1CD1FC
:101280002368226B1288DA60236B02332363E38EB8
:10129000013BE38611E02046022100222B46FFF7A6
:1012A00003FF002849D12368226B1288DA60236B80
:1012B00002332363E38E013BE386E38E002BEAD106
:1012C000A36AB3F5005F04D123681A6842F4805220
:1012D0001A602046022100222B46FFF7E5FE28B1C6
:1012E000636D43F010036365032327E020468021EC
:1012F00001222B46FFF7D8FE034628B1636D43F069
:1013000010036365032319E0A2682AB92268D16833
:10131000019192680192019A012284F851200022E1
:1013200084F850200AE0022308E0012306E00123AC
:1013300004E0022302E0032300E00323184603B085
:1013400030BD00BF30B583B00446069D0020ADF827
:10135000060094F85100C0B2012805D094F851005D
:10136000C0B2222840F07681002900F07581002A61
:1013700000F07481002B00F0738194F85000012874
:1013800000F07081012084F8500094F85100C0B240
:10139000012802D1322084F8510000206065A26348
:1013A000A387E3872163A386E386A064E064A36A3E
:1013B000B3F5005F09D123681A6822F400521A605D
:1013C00023681A6842F400521A6023681A6812F0FF
:1013D000400F03D11A6842F040021A60E368B3F587
:1013E000006F7DD163682BB1B3F5827F0CD1E38EA2
:1013F000012B09D12368226B1288DA60236B023338
:101400002363E38E013BE386E38E002B4DD1A36A79
:10141000B3F5005F04D123681A6842F480521A6061
:101420002046012100222B46FFF73EFE002840F017
:101430001B81A36B2268D2681A80A36B0233A3635B
:10144000E38F013BE387BDE02046022100222B46CB
:10145000FFF72AFE002840F009812368226B1288DA
:10146000DA60236B02332363E38E013B9BB2E38696
:1014700043B9A36AB3F5005F04D123681A6842F444
:1014800080521A602046012100222B46FFF70CFEF5
:10149000002840F0ED80A36B2268D2681A80A36B0D
:1014A0000233A363E38F013BE387E38E002BCBD1B1
:1014B0006368002B40F086802046012100222B46E5
:1014C000FFF7F2FD002840F0D580A36B2268D268B8
:1014D0001A80A36B0233A363E38F013BE38771E0C0
:1014E00063682BB1B3F5827F0BD1E38E012B08D15A
:1014F0002268236B591C21631B78D360E38E013B68
:10150000E386E38E002B47D1A36AB3F5005F04D1D5
:1015100023681A6842F480521A6020460121002292
:101520002B46FFF7C1FD002840F0A680A36B226880
:10153000D2681A70E38F013BE38743E02046022123
:1015400000222B46FFF7B0FD002840F0978022686C
:10155000236B591C21631B78D360E38E013B9BB244
:10156000E38643B9A36AB3F5005F04D123681A6820
:1015700042F480521A602046012100222B46FFF7D8
:1015800093FD00287CD1A36B5A1CA2632268D26809
:101590001A70E38F013BE387E38E002BCED16368A3
:1015A00083B92046012100222B46FFF77DFD00284C
:1015B00068D1A36B5A1CA2632268D2681A70E38FA9
:1015C000013BE387A36AB3F5005F13D120460121F5
:1015D00000222B46FFF768FD28B1636D43F002033C
:1015E000636503234FE02368DB689BB2ADF80630E8
:1015F000BDF806302046802101222B46FFF754FD1E
:10160000034628B1636D43F01003636503233AE09A
:10161000012284F85120A26AB2F5005F16D1226837
:10162000916811F0100F11D0636D43F002036365F0
:10163000136823F40053136023681A6842F40052BD
:101640001A60002384F8503001231CE0002284F843
:10165000502018E0022316E0012314E0012312E0D9
:10166000012310E002230EE003230CE003230AE031
:10167000032308E0032306E0032304E0032302E03E
:10168000032300E00323184603B030BDF0B585B056
:1016900004460F4615461E460020ADF80E0094F88D
:1016A0005100C0B2012840F0FD80002900F0FC800C
:1016B000002A00F0FB8094F85030012B00F0F880F5
:1016C000012384F85030222384F8513000236365CD
:1016D000A163A287E287A364E3642363A386E3860E
:1016E000A368B3F5004F04D123681A6822F480423E
:1016F0001A60A36AB3F5005F09D123681A6822F45F
:1017000000521A6023681A6842F400521A60636833
:10171000B3F5827F0CD1A36853B984F8503000969A
:10172000204639463A462B46FFF70CFE0546C6E0F2
:1017300023681A6812F0400F03D11A6842F0400281
:101740001A60E36893B131E020460121002233465C
:10175000FFF7AAFC002840F0AD80A36B5A1CA263DF
:101760002268D2681A70E38F013BE387E38F012B75
:10177000EAD8A36AB3F5005F24D123681A6842F45B
:1017800080521A601EE02046012100223346FFF7F6
:101790008BFC002840F09080A36B2268D2681A80EE
:1017A000A36B0233A363E38F013BE387E38F012B3A
:1017B000E9D8A36AB3F5005F04D123681A6842F43C
:1017C00080521A602046012100223346FFF76CFC4C
:1017D0000546002872D1E36833B9A36B5A1CA26393
:1017E0002268D2681A7006E0A36B2268D2681A8059
:1017F000A36B0233A363E38F013BE387A36AB3F5D3
:10180000005F13D12046012100223346FFF74CFC34
:1018100028B1636D43F00203636503254FE023683D
:10182000DB689BB2ADF80E30BDF80E306368B3F5DF
:10183000827F0BD1A368B3F5004F02D0B3F5806F60
:1018400004D123681A6822F040021A60012384F848
:101850005130A36AB3F5005F20D123689B6813F071
:10186000100F1BD0204600F071F8012812D1636DD3
:1018700043F00203636523681A6822F400521A6079
:1018800023681A6842F400521A60002384F850302A
:10189000012514E023686FF010029A60002384F899
:1018A00050300CE002250AE0012508E0012506E0A1
:1018B000022504E0032502E0032500E00325284675
:1018C00005B0F0BD10B5044600283AD090F851306C
:1018D00013F0FF0F01D100F099FE022384F851307C
:1018E00023681A6822F040021A6023686168A268BF
:1018F0001143E26811432269114362690A43A169F5
:1019000001F400711143E2691143226A1143A26A92
:101910000A431A602368618B01F00401626A0A437A
:101920005A602368E26A1A612368DA6922F4006265
:10193000DA610020044B18706065012384F851308F
:1019400010BD012010BD00BFC8000020012070475D
:101950002DE9F84304460368196921F44051C2682F
:101960000A431A61826803691A43436942EA030120
:101970000268D36823F4B05323F00C030B43D36005
:101980000368596921F4407182690A435A61066803
:101990005A4B9E4258D1FFF76FFB00EB800000EBE3
:1019A000800063689B00B0FBF3F9554DA5FB092946
:1019B0004FEA59194FEA0919FFF75EFB00EB800067
:1019C00000EB800063689B00B0FBF3F8FFF754FB6B
:1019D00000EB800000EB800063689B00B0FBF3F33A
:1019E000A5FB03235B09642707FB13884FEA08184C
:1019F00008F13208A5FB08384FEA581808F0F0083B
:101A0000C844FFF739FB00EB800000EB80006368FF
:101A10009B00B0FBF3F9FFF72FFB00EB800000EB1E
:101A2000800063689B00B0FBF3F3A5FB03235B0915
:101A300007FB13973F013237A5FB0735C5F3431565
:101A40004544B560BDE8F883FFF7FEFA00EB80007F
:101A500000EB800063689B00B0FBF3F9284DA5FB09
:101A600009294FEA59194FEA0919FFF7EDFA00EB76
:101A7000800000EB800063689B00B0FBF3F8FFF789
:101A8000E3FA00EB800000EB800063689B00B0FB92
:101A9000F3F0A5FB00304009642707FB10884FEAEC
:101AA000081808F13208A5FB08284FEA581808F072
:101AB000F008C844FFF7C8FA00EB800000EB800094
:101AC00063689B00B0FBF3F9FFF7BEFA00EB800000
:101AD00000EB800063689B00B0FBF3F0A5FB0030D7
:101AE000400907FB10973F013237A5FB0725C5F3D7
:101AF00043154544B560BDE8F88300BF0038014098
:101B00001F85EB512DE9F04106460C4690461D46D7
:101B1000FEF74CFC0746B8F1000F26D053E0B5F1B4
:101B2000FF3F22D025B1FEF741FCC01BA8421CD9C3
:101B30003368DA6822F08002DA603368DA6822F00B
:101B40002002DA603368DA6822F48072DA6033687F
:101B50005A6922F001025A61012386F839300023C4
:101B600086F838300320BDE8F08133681B682340D5
:101B7000A342D4D10020BDE8F081B5F1FF3F22D0CF
:101B800025B1FEF713FCC01BA8421CD93368DA68E4
:101B900022F08002DA603368DA6822F02002DA602C
:101BA0003368DA6822F48072DA6033685A6922F0A6
:101BB00001025A61012386F83930002386F8383053
:101BC0000320BDE8F08133681B682340A342D4D0D2
:101BD0000020BDE8F08100BF10B5044648B390F87E
:101BE000393013F0FF0F04D1002380F8383000F0B3
:101BF0003BFD022384F839302368DA6822F400526E
:101C0000DA602046FFF7A4FE23681A6922F49042A6
:101C10001A6123685A6922F02A025A612368DA6835
:101C200042F40052DA600020E063012384F8393086
:101C300010BD012010BD00BF70B504460D461E4604
:101C400090F83930DBB2012B01D0222B59D1002D75
:101C500059D0002A59D094F83830012B57D001239D
:101C600084F838300023E36394F83930DBB2222B58
:101C700003D1322384F8393002E0122384F839305A
:101C8000A284E28423E0013AE284A268B2F5805F94
:101C900012D12046802100223346FFF733FF00286F
:101CA00037D123682A88C2F308025A6023690BB926
:101CB00002350CE001350AE020468021002233463F
:101CC000FFF720FF38BB23682A785A600135E28C81
:101CD000002AD8D1204640213346FFF713FF0346A0
:101CE000D8B994F83920D2B2322A03D1222284F80A
:101CF000392002E0012284F83920002284F83820BB
:101D00000CE002230AE0012308E0012306E002239D
:101D100004E0032302E0032300E00323184670BD20
:101D2000FEE700BF08B50D4B1B6813B90C4A0B4BFF
:101D30001A600A4B1B68033020F003001844094A5C
:101D4000904206D902F0F8F90C2303604FF0FF30FF
:101D500008BD024A1060184608BD00BFCC00002034
:101D600054100020004C002001230360014B0B6045
:101D7000704700BF040000200FB400B583B004AB6F
:101D800053F8042B01930848802102F009FD011E3D
:101D900003DD054800F00AF80146084603B05DF887
:101DA00004EB04B0704700BFD40000204FF0FF30B8
:101DB000704700BF08B500F087F8024B024A9A60EE
:101DC00008BD00BF00ED00E00000000808B500F00D
:101DD000A1F808BDF8B504460D4617461E4626482C
:101DE000FFF7CAFF25482168FFF7C6FF244861684E
:101DF000FFF7C2FF2348A168FFF7BEFF2248E16852
:101E0000FFF7BAFF21482169FFF7B6FF2048616953
:101E1000FFF7B2FF1F48A169FFF7AEFF1E48E16957
:101E2000FFF7AAFF1D48FFF7A7FF1D482946FFF748
:101E3000A3FF1C4CE16A1C48FFF79EFF216B1B4867
:101E4000FFF79AFFE16B1A48FFF796FF15F0800F36
:101E500003D018483946FFF78FFF15F4004F03D021
:101E600015483146FFF788FF1448FFF785FF1448EF
:101E70000699FFF781FFF8BDD8490008E849000836
:101E8000F8490008084A0008184A0008284A0008CB
:101E9000384A0008484A0008584A0008684A0008BA
:101EA000744A000800ED00E0844A0008944A0008E3
:101EB000A44A0008B44A0008C44A0008D44A0008EA
:101EC000DC4A0008FFF7FEBF0F4B1A6842F0010220
:101ED0001A6059680D4A0A405A601A6822F08472E2
:101EE00022F480321A601A6822F480221A605A683A
:101EF00022F4FE025A604FF41F029A604FF0006213
:101F0000034B9A60704700BF001002400000FFF8CA
:101F100000ED00E01F4B5B6803F00C03042B06D0C0
:101F2000082B08D03BBB1C4A1C4B1A6026E01A4AFF
:101F30001A4B1A6022E0174B5A685B68C2F383425F
:101F4000023213F4803F05D1154B03FB02F2134B11
:101F50001A6013E00F4B5B6813F4003F05D0104B81
:101F600003FB02F20D4B1A6008E00B4B03FB02F27D
:101F70000A4B1A6002E0084A084B1A60054B5B687E
:101F8000C3F30313074AD15C044B1A68CA401A60B2
:101F9000704700BF0010024000127A000C000020C1
:101FA00000093D00204B00082DE9F04188B02C4B82
:101FB0009A6942F010029A619A6902F01002019245
:101FC000019A9A6942F004029A619A6902F0040245
:101FD0000292029A9A6942F008029A619B6903F0A0
:101FE00008030393039BDFF8848040464FF460416D
:101FF0000022FEF7E1FB1B4F384653210022FEF77B
:10200000DBFB194C204641F201010022FEF7D4FB14
:102010004FF4604304930126059602250795404638
:1020200004A9FEF7D9FA5323049305960795384679
:1020300004A9FEF7D1FA41F201030493059607952E
:10204000204604A9FEF7C8FA22230493002305932F
:102050000693204604A9FEF7BFFA08B0BDE8F08158
:102060000010024000080140000C01400010014037
:1020700008B50022FEF7A0FB08BD00BF08B501228D
:10208000FEF79AFB08BD00BFF8B507460E46FFF7FE
:10209000EFFF0A20FEF790F9094D0A4C2846214629
:1020A00001223C23FFF772F82846611C01223C23E1
:1020B000FFF76CF838463146FFF7E0FFF8BD00BF88
:1020C000E80E002010000020F0B585B006460D4651
:1020D000FFF7CEFF5648574901223C23FFF756F839
:1020E000002408E0524802A9214401223C23FFF7C2
:1020F000CDFA0134E4B2072CF4D930462946FFF773
:10210000BDFF9DF808304C4CE3709DF809009DF828
:102110000A3043EA0020400820809DF80B209DF8FB
:102120000C3043EA02235B10A3809DF80D209DF83C
:102130000E3043EA0223E3809DF80F30A37001F0D4
:10214000DDFB31A3D3E9002301F04EFC00224FF068
:102150007C5301F049FC394FC7E90001384ECDE905
:102160000001304637492A4601F0F6FF364D284631
:1021700031461E223C23FFF75FFD208801F084FFDB
:1021800001F0DEFB02460B463046304901F0E4FF29
:10219000284631461E223C23FFF74EFDD7E90001B9
:1021A0001BA3D3E9002301F049FD00F0C9FF1AA3E6
:1021B000D3E9002301F042FD19A3D3E9002301F084
:1021C00061FA02460B460020214901F037FD16A3B3
:1021D000D3E9002301F054FA02460B461D49C1E938
:1021E00000231D4C20461D4901F0B6FF284621461C
:1021F0001E223C23FFF720FD4FF4FA60FEF7DCF8C7
:1022000005B0F0BDAFF3008000000000C0AF1C417E
:10221000000000000088C3400000000000D6AA4073
:1022200083DBB5DCE1796B3F6666666666127140FA
:10223000E80E002054010020400F0020C80F0020AD
:10224000C80E0020384B0008880F00204C4B0008B7
:102250000000F03FC00E002030100020584B000856
:1022600010B5174C204601F09BFF82B2154821465D
:102270004FF6FF73FFF7E0FC00240CE0124B53F81D
:102280002400124B33F81410FFF71EFF10480121F1
:10229000FEF798FA0134092CF0DDC820FEF78CF81F
:1022A0000C4C20460C4901F057FF064821461E22DF
:1022B0003C23FFF7C1FC4FF4FA70FEF77DF8D0E73E
:1022C000644B0008880F0020140000203C00002010
:1022D00000080140D00F00208C4B0008FEE700BF33
:1022E00008B50D480D4B036008234360002383604D
:1022F000C3604FF48032026143618361C361036252
:1023000043628362C362FEF765F820B104484FF46C
:10231000CA71FFF7E3FF08BD480F002000640040CA
:102320009C4B000808B50B480B4B03604FF4E1339E
:10233000436000238360C36003610C2242618361B8
:10234000C361FFF749FC20B104484FF4DF71FFF788
:10235000C5FF08BD880F0020003801409C4B0008D5
:1023600008B50B480B4B03604FF4E1334360002387
:102370008360C36003610C2242618361C361FFF724
:102380002BFC20B1044840F2D111FFF7A7FF08BD94
:10239000F00F0020004400409C4B000808B50F4897
:1023A0000F4B03604FF48273436000238360C3606C
:1023B0000361012242614FF4007282613822C261DE
:1023C0000362436283620A23C362FFF77BFA20B190
:1023D000044840F2AB11FFF781FF08BDE80E002072
:1023E000003800409C4B000800B591B002230693D2
:1023F00001230A9310230B9300230D9306A8FEF7E5
:10240000E5F920B1154840F26511FFF767FF0F238A
:1024100001930021029103914FF48063049305918D
:1024200001A8FEF719FD20B10C4840F27311FFF727
:1024300055FFFEF703FE0A4BA3FB00208009FEF7C1
:10244000A5F80420FEF7B8F84FF0FF300F21002266
:10245000FEF76AF811B05DF804FB00BF9C4B000862
:10246000D34D621010B586B0FDF786FFFFF7BCFFB5
:10247000204B9A6942F004029A619B6903F00403BD
:102480000593059BFFF790FDFFF72AFFFFF74AFF33
:10249000FFF766FFFFF782FF174901234B608B6050
:1024A0000322CA600B601548FEF796F800240CE082
:1024B000134B53F82400134B33F81410FFF7E4FDCB
:1024C0004FF4FA70FDF778FF0134092CF0DD4FF47A
:1024D0007A70FDF771FF01230093002301930293AB
:1024E000039309480949802200F0F6FB00F07AFCCA
:1024F000FEE700BF00100240580100200008014024
:10250000140000203C00002061220008AC4B0008B1
:1025100000B583B0204B9A6942F001029A619B6931
:1025200003F001030193019B0320FDF7EBFF6FF024
:102530000B0000210A46FDF7F7FF6FF00A000021AB
:102540000A46FDF7F1FF6FF0090000210A46FDF78A
:10255000EBFF6FF0040000210A46FDF7E5FF6FF086
:10256000030000210A46FDF7DFFF6FF001000F2195
:102570000022FDF7D9FF4FF0FF300F210022FDF7B9
:10258000D3FF064B5A6822F0E06242F000725A60B4
:1025900003B05DF804FB00BF0010024000000140E2
:1025A00010B586B00268164B9A4227D103F5D63390
:1025B000DA6942F00072DA61DB6903F000730193BB
:1025C000019B4FF4807302930023039304930D4CFB
:1025D000204602A9FEF700F84FF40073029302238D
:1025E000039303230593204602A9FDF7F5FF064B4D
:1025F0005A6822F4C04242F480425A6006B010BDCC
:1026000000640040000C01400000014010B586B09D
:102610000268134B9A4220D103F5EC33DA6942F495
:102620008042DA61DB6903F480430193019B4FF43C
:10263000204302930223039303230593094C20466E
:1026400002A9FDF7C9FF4FF48043029300230393CF
:102650000493204602A9FDF7BFFF06B010BD00BFDE
:1026600000380040000C014010B586B00368234AD2
:10267000934220D1224B9A6942F480429A619B692D
:1026800003F480430093009B4FF4007302930223F2
:102690000393032305931B4C204602A9FDF79CFFDF
:1026A0004FF480630293002303930493204602A90E
:1026B000FDF792FF20E0144A93421DD1104BDA69D6
:1026C00042F40032DA61DB6903F400330193019BC9
:1026D000042302930223039303230593094C20460A
:1026E00002A9FDF779FF08230293002303930493C3
:1026F000204602A9FDF770FF06B010BD003801406A
:10270000001002400008014000440040704700BF34
:10271000FEE700BFFEE700BFFEE700BFFEE700BF29
:10272000704700BF08B5FDF739FE00F00BFA08BD91
:10273000124B13F0070F07D0D91D21F00701C1F587
:1027400040621A440B4601E04FF440620C480360BB
:10275000002141601A44083A22F007020948026049
:1027600051601160D11A59601A60074B1960074B0C
:1027700019604FF00042064B1A6070477801002044
:10278000700100206C0100207C0D002068010020F9
:10279000780D002010B4134A00E01A4613688342F3
:1027A000FBD351685418844203D1406801445160FE
:1027B000104641684418A3420CD10B4C2468A34234
:1027C00006D05B681944416013681B68036002E02F
:1027D000046000E00360824200D010605DF8044BAA
:1027E000704700BF700100206C01002070B50546E5
:1027F00000F026FB2D4B1B680BB9FFF799FF2C4B04
:102800001B681D4241D135B1083515F0070F02D0C4
:1028100025F007050835002D39D0264B1B689D4251
:1028200037D8254A146801E022461C466368AB424B
:1028300002D22368002BF7D11C4B1B689C422AD084
:10284000166808362368136063685B1B102B0AD96F
:10285000601910F0070F02D000F09EF8FEE7436009
:102860006560FFF797FF626812490B689B1A0B605F
:10287000124909688B4201D210490B600C4B1B684E
:102880001A4362600023236006E0002604E000266D
:1028900002E0002600E0002600F066FB16F0070FBD
:1028A00002D000F079F8FEE7304670BD6C010020E0
:1028B000780D002068010020700100207C0D0020B0
:1028C00038B5044620B3A0F1080550F8043C114A7D
:1028D000126813EA020002D100F05EF8FEE754F835
:1028E000081C11B100F058F8FEE788B181B923EA5D
:1028F000020344F8043C00F0A3FA54F8041C064B0D
:102900001A680A441A602846FFF744FF00F02CFBBF
:1029100038BD00BF780D002068010020064800681F
:10292000006880F3088862B661B6BFF34F8FBFF3CB
:102930006F8F00DF00BF000008ED00E04FF08073F4
:1029400040F8043C40F8081C034B40F80C3C40F8AD
:10295000202C4038704700BFA9290008074B196890
:102960000868B0E8F00F80F30988BFF36F8F4FF06D
:10297000000080F311884EF00D0E7047400E0020CD
:102980004FF08052034B1A60BFF34F8FBFF36F8F2E
:10299000704700BF04ED00E0EFF311804FF05001ED
:1029A00081F311887047002008B5054B1B68B3F10F
:1029B000FF3F02D0FFF7F0FFFEE7FFF7EDFFFEE776
:1029C0005000002008B5FFF7E7FF094A13680133FC
:1029D0001360BFF34F8FBFF36F8F012B07D1054BF0
:1029E0001B6813F0FF0F02D0FFF7D6FFFEE708BD0C
:1029F0005000002004ED00E080F31188704700BF14
:102A000008B5074B1B6813B9FFF7C6FFFEE7013B8C
:102A1000034A136013B90020FFF7EEFF08BD00BFA3
:102A200050000020EFF30980BFF36F8F0D4B1A6841
:102A300020E9F00F10602DE908404FF0500080F3BE
:102A4000118800F035FB4FF0000080F31188BDE8DD
:102A5000084019680868B0E8F00F80F30988BFF3F0
:102A60006F8F7047400E002008B5FFF795FF00F00C
:102A7000EFF918B14FF08052024B1A600020FFF7B7
:102A8000BBFF08BD04ED00E0064B1A68064BA3FB34
:102A900002129209013A054B1A600722043B1A60A0
:102AA000704700BF0C000020D34D621014E000E01E
:102AB00000B583B01F4B1A78D2B20192FF221A7070
:102AC0001B78DBB28DF803309DF8032002F0500232
:102AD000194B1A700722194B1A6009E0174B1A6834
:102AE000013A1A609DF803305B00DBB28DF80330C9
:102AF0009DF8033013F0800FF0D1104B1A681202CA
:102B000002F4E0621A60019AD2B20A4B1A7003F51D
:102B100012631A6842F470021A601A6842F0704236
:102B20001A60FFF7B1FF0022054B1A60FFF7F6FEAF
:102B3000FFF73AFF00E400E0800D0020840D002044
:102B40005000002008B500F0EBFA012801D0FFF793
:102B50008BFF08BD00F1080343604FF0FF32826035
:102B6000C360036100230360704700BF002303615B
:102B7000704700BF43684B609A688A609A685160EA
:102B80009960086103680133036070470369426814
:102B9000816891608268416851605A68824201D1BF
:102BA00082685A6000220261186801381860704714
:102BB0000A4B1B681B680BB9012300E0002323B1FB
:102BC0004FF0FF32064B1A607047044B1B68DB68FE
:102BD000DB685A68024B1A60704700BF880D0020FE
:102BE000440E002038B50C4619B98000FFF7FEFDF1
:102BF000044654B15420FFF7F9FD054608B10463BB
:102C000004E02046FFF75CFE00E00025284638BDC2
:102C100010B50446006BFFF753FE2046FFF750FE49
:102C200010BD00BF70B504461646002306E0CD5C1B
:102C3000E01880F83450C85C10B101330F2BF6D97E
:102C4000002384F84330062E00D90626E662666427
:102C50000025A564201DFFF789FF04F11800FFF788
:102C600085FF2461C6F10706A6616462E56484F805
:102C7000505070BD38B5002406E014200E4B00FB08
:102C80000430FFF767FF0134062CF6D90B4D2846B8
:102C9000FFF760FF0A4C2046FFF75CFF0948FFF78B
:102CA00059FF0948FFF756FF0848FFF753FF084B45
:102CB0001D60084B1C6038BDAC0D00206C0E002060
:102CC000800E0020540E0020940D0020940E002051
:102CD000880D0020500E00202DE9F04F83B08B4668
:102CE000164699460C9DDDF83480824610B9FFF7F0
:102CF00053FEFEE7062D02D9FFF74EFEFEE7104613
:102D00000E99FFF76FFF044600284CD0036B06F1C5
:102D10008047013F03EB870727F0070700965946D6
:102D20002A460F9BFFF77EFF384651464A46FFF77B
:102D300005FE2060B8F1000F01D0C8F80040FFF791
:102D400041FE224B1A6801321A60214B1B6843B9BD
:102D50001F4B1C601D4B1B68012B0CD1FFF78AFF1A
:102D600009E01C4B1B6833B9194B1B68DB6AAB428B
:102D700001D8174B1C60184B1A6801321A60E36ABD
:102D8000012606FA03F0154A11680143116003EBAE
:102D900083039B0012481844211DFFF7EBFEFFF749
:102DA0002FFE344601E04FF0FF34012C09D1094BCE
:102DB0001B6833B1064B1B68DB6AAB4201D2FFF7DD
:102DC000DFFD204603B0BDE8F08F00BF3C0E0020C1
:102DD000400E00208C0D0020680E0020A80E002060
:102DE000AC0D002000B585B0002300930193029341
:102DF00003930E480E498022FFF76EFF01280ED183
:102E0000FFF7CAFD4FF0FF320A4B1A6001220A4B4E
:102E10001A600022094B1A60FFF74AFE03E010B95E
:102E2000FFF7BAFDFEE705B05DF804FB9930000836
:102E3000B84B0008440E00208C0D00204C0E0020E2
:102E4000024B1A6801321A60704700BF380E00202A
:102E5000F8B53A4B1B68002B63D1394B1A68013225
:102E60001A601E6896B9374B1B681B6813B1FFF7D1
:102E700093FDFEE7334A1168334B18681060196000
:102E8000324B1A6801321A60FFF792FE304B1B6812
:102E90009E4203D2002439E0012400E00024294BA3
:102EA0001B681B680BB9012300E0002323B14FF01E
:102EB000FF32274B1A6029E0224B1B68DB68DD6874
:102EC0006B689E4202D2224A13601FE02F1D3846D3
:102ED000FFF75CFEAB6A1BB105F11800FFF756FE69
:102EE000EB6A012098401B4A11680143116003EB13
:102EF00083039B00184818443946FFF73BFEEA6AF3
:102F0000164B1B68DB6A9A42C6D2C8E7134B1B6894
:102F1000DB6A03EB83039B000F4AD358012B06D8CF
:102F200006E00F4B1A6801321A60002400E0012409
:102F30000C4B1B6803B101242046F8BD380E00205D
:102F40004C0E0020880D0020500E0020480E00205E
:102F5000440E0020A80E0020AC0D0020400E0020E2
:102F6000A80D0020AC0E002038B52E4B1B6813B9FD
:102F7000FFF712FDFEE7FFF725FD2A4B1A68013A1D
:102F80001A601B68002B45D1274B1B6823BB00240C
:102F900043E0264BDB68DC6804F11800FFF7F6FD20
:102FA000251D2846FFF7F2FDE36A01209840204ADC
:102FB00011680143116003EB83039B001D48184413
:102FC0002946FFF7D7FDE26A1B4B1B68DB6A9A4272
:102FD00002D30122194B1A60144B1B68002BD8D165
:102FE000174B1B6853B90DE0FFF732FF10B10122F8
:102FF000124B1A60124B1A68013A1A60104B1B6888
:10300000002BF1D10D4B1B68012B05D1FFF7B8FC4C
:10301000012402E0002400E00024FFF7F1FC204638
:1030200038BD00BF380E00203C0E0020540E00209A
:10303000A80E0020AC0D0020400E0020AC0E002099
:10304000A80D002010B51BE0FFF7FAFE0F4B1C681F
:10305000FFF78AFFA4B1FFF7B5FC0C4BDB68DC6817
:10306000201DFFF793FD0A4B1A68013A1A60094BBD
:103070001A68013A1A60FFF7C3FC2046FFF7C8FD43
:10308000044B1B68002BDFD110BD00BF940D002046
:103090003C0E0020900D002008B5FFF7D3FF034B36
:1030A0001B68012BF9D9FFF76BFCF6E7AC0D00208C
:1030B00008B5164B1B681BB10122154B1A6008BDE1
:1030C0000022134B1A60134B1B68B3FA83F3DBB275
:1030D000C3F11F0303EB830292000F498A5812B910
:1030E000FFF75AFCFEE703EB83039B000A4A1344F5
:1030F0005A6852685A6003F108018A4201D1526845
:103100005A605B68DA68054B1A6008BD380E00200B
:10311000AC0E0020A80E0020AC0D0020400E0020B8
:10312000054B1B6823B1054B1B681BB90220704778
:1031300001207047002070478C0D0020380E0020C1
:103140002DE9F0418AB004460D4600F06DF8DFF835
:10315000D080064698F900300F4601330BD0204648
:10316000294600F059FA30B12046294600220023B2
:1031700000F0CAFE20B1304639460AB0BDE8F08101
:10318000234B98F800600890CDE90245CDE904454D
:10319000019346BB1F4B4FF06042CDE9062320460A
:1031A00029460022002300F087FE70B102239E42D0
:1031B000009322D0684600F057FAF0B1089B0BBB91
:1031C000DDE906010AB0BDE8F0810123022E00937B
:1031D0000ED0684600F048FA50B10F4800F046FAA9
:1031E000CDE90601EAE70D4B0022CDE90623D6E73B
:1031F00000F0A2FF21230360EFE700F09DFF2223F0
:103200000360DBE700F098FF089B0360D8E700BF8E
:10321000C04B0008FFFFEFC7F44900080000F0FFB3
:1032200054000020000000002DE9F04FB1F5801F90
:1032300087B002460B460F465BDA21F00046064394
:1032400000F0F5800029C0F2A4810022B24B00F00A
:10325000CBFB0F460B46B14902468F426FF0350556
:103260004BDCC7F3130606F5152101F6647101F472
:10327000801484F07F5181F4401141EA0603104626
:1032800019460022A64B00F0FBF94FEA2758B31C61
:10329000A8F2FF38C3F31303A844022B08EB145819
:1032A00082468B464FF000022EDC002300F004FE25
:1032B000002800F0C580B8F1000F00F07181404691
:1032C00000F02CFB80A3D3E9002306460F4600F054
:1032D0008BFB7FA3D3E9002304460D4630463946D5
:1032E00000F082FB02460B462046294600F0CAF950
:1032F00007E08A4900258F42B3DD1046194600F0E9
:10330000C1F907B0BDE8F08F4FF0804300F0BAF983
:1033100002460B465046594600F090FCCDE90201AA
:10332000404600F0FBFACDE90401DDE90201024666
:103330000B4600F059FB02460B46CDE9000100F0B8
:1033400053FB65A3D3E9002304460D4600F04CFB74
:1033500063A3D3E9002300F095F922462B4600F041
:1033600043FB61A3D3E9002300F08CF922462B46EE
:1033700000F03AFB5EA3D3E9002300F083F9DDE916
:10338000002300F031FB5CA3D3E90023CDE9000169
:103390002046294600F028FB59A3D3E9002300F07A
:1033A00071F922462B4600F01FFB57A3D3E90023F7
:1033B00000F068F922462B4600F016FB0B46024649
:1033C000DDE9000100F05EF9A6F5C223C6F5D726B7
:1033D000A3F27A4351361E43002E04460D4657DDB4
:1033E0000022504B5046594600F0FEFA52465B46CA
:1033F00000F0FAFA06460F46B8F1000F40F096804A
:1034000022462B4600F03EF9DDE9022300F0ECFAFB
:1034100002460B463046394600F032F902460B466A
:103420005046594600F02CF907B0BDE8F08F002255
:10343000002300203C4900F001FC07B0BDE8F08FFC
:1034400052465B465046594600F0CEFA30A3D3E9C7
:10345000002304460D465046594600F0C5FA024680
:103460000B4600202F4900F00BF902460B46204680
:10347000294600F0B9FA04460D46B8F1000F40F0B5
:1034800092805046594622462B4600F0F9F838E71C
:10349000B8F1000F00F0AB800BA3D3E90023DDE906
:1034A000040100F0A1FA22462B4606460F4650467C
:1034B000594600F0E5F8DDE9022300F095FA0446EC
:1034C0000D46DDE904017CE00000E0FE422EE63F0F
:1034D000763C7935EF39EA3D44523EDF12F1C23F86
:1034E000DE03CB966446C73F599322942449D23FCA
:1034F000935555555555E53F9FC678D0099AC33F1A
:10350000AF788E1DC571CC3F04FA97999999D93F30
:10351000555555555555D53F00005043FFFFEF7F9A
:103520000000F03F0000E03F000050C336A3D3E9A5
:103530000023DDE9040100F057FA2246804689465F
:103540002B463046394600F09DF8DDE9022300F0B5
:103550004BFA2FA3D3E9002304460D46DDE904010D
:1035600000F042FA02460B462046294600F08AF84F
:1035700002460B463046394600F082F852465B461A
:1035800000F07EF802460B464046494600F078F8C7
:10359000B7E600F075F80022002300F04FFBB0E61C
:1035A00000200021ADE6404600F0B8F916A3D3E9AB
:1035B00000238046894600F017FA06460F4640462B
:1035C000494613A3D3E9002300F00EFA02460B4646
:1035D0002046294600F054F852465B4600F050F869
:1035E00002460B463046394600F04AF889E6024664
:1035F0000B465046594600F043F8DDE9022300F03F
:10360000F3F90BE7AFF300800000E0FE422EE63F47
:10361000763C7935EF39EA3D31F0004310B408D0FB
:103620000F4AA3F5801494420AD804205DF8044B95
:10363000704700280CBF022003205DF8044B704740
:10364000B3F5801F01D20320F7E7064A934201D069
:103650000020F2E7D0F1010038BF0020EDE700BF05
:10366000FFFFDF7F0000F07F00207047002001494E
:10367000704700BF0000F87F81F0004102E000BF0A
:1036800083F0004330B54FEA41044FEA430594EA22
:10369000050F08BF90EA020F1FBF54EA000C55EA5D
:1036A000020C7FEA645C7FEA655C00F0E2804FEA2E
:1036B0005454D4EB5555B8BF6D420CDD2C4480EA10
:1036C000020281EA030382EA000083EA010180EA40
:1036D000020281EA0303362D88BF30BD11F0004F8E
:1036E0004FEA01314FF4801C4CEA113102D04042C4
:1036F00061EB410113F0004F4FEA03334CEA1333FF
:1037000002D0524263EB430394EA050F00F0A78016
:10371000A4F10104D5F1200E0DDB02FA0EFC22FA11
:1037200005F2801841F1000103FA0EF2801843FA05
:1037300005F359410EE0A5F120050EF1200E012AF6
:1037400003FA0EFC28BF4CF0020C43FA05F3C01834
:1037500051EBE37101F0004507D54FF0000EDCF1AD
:10376000000C7EEB00006EEB0101B1F5801F1BD356
:10377000B1F5001F0CD349085FEA30004FEA3C0C5A
:1037800004F101044FEA445212F5800F80F09A8050
:10379000BCF1004F08BF5FEA500C50F1000041EB54
:1037A000045141EA050130BD5FEA4C0C404141EB58
:1037B000010111F4801FA4F10104E9D191F0000F7F
:1037C00004BF01460020B1FA81F308BF2033A3F102
:1037D0000B03B3F120020CDA0C3208DD02F1140CF9
:1037E000C2F10C0201FA0CF021FA02F10CE002F134
:1037F0001402D8BFC2F1200C01FA02F120FA0CFC2D
:10380000DCBF41EA0C019040E41AA2BF01EB045175
:10381000294330BD6FEA04041F3C1CDA0C340EDC73
:1038200004F11404C4F1200220FA04F001FA02F3B6
:1038300040EA030021FA04F345EA030130BDC4F174
:103840000C04C4F1200220FA02F001FA04F340EA69
:103850000300294630BD21FA04F0294630BD94F01A
:10386000000F83F4801306BF81F480110134013D01
:103870004EE77FEA645C18BF7FEA655C29D094EA72
:10388000050F08BF90EA020F05D054EA000C04BFF0
:103890001946104630BD91EA030F1EBF00210020DB
:1038A00030BD5FEA545C05D14000494128BF41F07A
:1038B000004130BD14F580043CBF01F5801130BDDE
:1038C00001F0004545F0FE4141F470014FF0000069
:1038D00030BD7FEA645C1ABF194610467FEA655C1A
:1038E0001CBF0B46024650EA013406BF52EA0335BC
:1038F00091EA030F41F4002130BD00BF90F0000FAA
:1039000004BF0021704730B54FF4806404F13204E5
:103910004FF000054FF0000150E700BF90F0000F9E
:1039200004BF0021704730B54FF4806404F13204C5
:1039300010F0004548BF40424FF000013EE700BF95
:1039400042004FEAE2014FEA31014FEA02701FBF25
:1039500012F07F4393F07F4F81F06051704792F0F7
:10396000000F14BF93F07F4F704730B54FF4607471
:1039700001F0004521F0004120E700BF50EA0102BC
:1039800008BF704730B54FF000050AE050EA010269
:1039900008BF704730B511F0004502D5404261EBD9
:1039A00041014FF4806404F132045FEA915C3FF41A
:1039B000DCAE4FF003025FEADC0C18BF03325FEAB3
:1039C000DC0C18BF033202EBDC02C2F1200300FA68
:1039D00003FC20FA02F001FA03FE40EA0E0021FA8D
:1039E00002F11444C1E600BF70B54FF0FF0C4CF477
:1039F000E06C1CEA11541DBF1CEA135594EA0C0F2D
:103A000095EA0C0F00F0DEF82C4481EA030621EA67
:103A10004C5123EA4C5350EA013518BF52EA0335A2
:103A200041F4801143F4801338D0A0FB02CE4FF054
:103A30000005E1FB02E506F00042E0FB03E54FF084
:103A40000006E1FB03569CF0000F18BF4EF0010E7C
:103A5000A4F1FF04B6F5007F64F5407404D25FEA78
:103A60004E0E6D4146EB060642EAC62141EA55512B
:103A70004FEAC52040EA5E504FEACE2EB4F1FD0C6D
:103A800088BFBCF5E06F1ED8BEF1004F08BF5FEAEB
:103A9000500E50F1000041EB045170BD06F000469D
:103AA00046EA010140EA020081EA0301B4EB5C044A
:103AB000C2BFD4EB0C0541EA045170BD41F4801142
:103AC0004FF0000E013C00F3AB8014F1360FDEBF67
:103AD000002001F0004170BDC4F10004203C35DA43
:103AE0000C341BDC04F11404C4F1200500FA05F3C6
:103AF00020FA04F001FA05F240EA020001F0004267
:103B000021F0004110EBD37021FA04F642EB0601DC
:103B10005EEA430E08BF20EAD37070BDC4F10C0406
:103B2000C4F1200500FA04F320FA05F001FA04F2CA
:103B300040EA020001F0004110EBD37041F10001B6
:103B40005EEA430E08BF20EAD37070BDC4F12005C1
:103B500000FA05F24EEA020E20FA04F301FA05F229
:103B600043EA020321FA04F001F0004121FA04F2D1
:103B700020EA020000EBD3705EEA430E08BF20EAA1
:103B8000D37070BD94F0000F0FD101F000464000DB
:103B900041EB010111F4801F08BF013CF7D041EA5D
:103BA000060195F0000F18BF704703F00046520061
:103BB00043EB030313F4801F08BF013DF7D043EA32
:103BC0000603704794EA0C0F0CEA135518BF95EAE8
:103BD0000C0F0CD050EA410618BF52EA4306D1D16F
:103BE00081EA030101F000414FF0000070BD50EA8E
:103BF000410606BF1046194652EA430619D094EA18
:103C00000C0F02D150EA013613D195EA0C0F05D101
:103C100052EA03361CBF104619460AD181EA030155
:103C200001F0004141F0FE4141F470014FF000000D
:103C300070BD41F0FE4141F4780170BD70B54FF0A8
:103C4000FF0C4CF4E06C1CEA11541DBF1CEA135528
:103C500094EA0C0F95EA0C0F00F0A7F8A4EB05040A
:103C600081EA030E52EA03354FEA013100F0888001
:103C70004FEA03334FF0805545EA131343EA1263CA
:103C80004FEA022245EA111545EA10654FEA00267F
:103C90000EF000419D4208BF964244F1FD0404F538
:103CA000407402D25B084FEA3202B61A65EB030594
:103CB0005B084FEA32024FF480104FF4002CB6EB51
:103CC000020E75EB030E22BFB61A754640EA0C00D1
:103CD0005B084FEA3202B6EB020E75EB030E22BF11
:103CE000B61A754640EA5C005B084FEA3202B6EB52
:103CF000020E75EB030E22BFB61A754640EA9C0011
:103D00005B084FEA3202B6EB020E75EB030E22BFE0
:103D1000B61A754640EADC0055EA060E18D04FEA9E
:103D2000051545EA16754FEA06164FEAC30343EA3E
:103D300052734FEAC2025FEA1C1CC0D111F4801F0B
:103D40000BD141EA00014FF000004FF0004CB6E704
:103D500011F4801F04BF01430020B4F1FD0C88BFA3
:103D6000BCF5E06F3FF6AFAEB5EB030C04BFB6EBAE
:103D7000020C5FEA500C50F1000041EB045170BDA1
:103D80000EF0004E4EEA113114EB5C04C2BFD4EBCE
:103D90000C0541EA045170BD41F480114FF0000E52
:103DA000013C90E645EA060E8DE60CEA135594EACE
:103DB0000C0F08BF95EA0C0F3FF43BAF94EA0C0FD1
:103DC0000AD150EA01347FF434AF95EA0C0F7FF446
:103DD00025AF104619462CE795EA0C0F06D152EA9A
:103DE00003353FF4FDAE1046194622E750EA41067E
:103DF00018BF52EA43067FF4C5AE50EA41047FF48F
:103E00000DAF52EA43057FF4EBAE12E74FF0FF3CF3
:103E100006E000BF4FF0010C02E000BF4FF0010CC4
:103E20004DF804CD4FEA410C7FEA6C5C4FEA430C3D
:103E300018BF7FEA6C5C1BD001B050EA410C0CBF8C
:103E400052EA430C91EA030F02BF90EA020F0020EE
:103E5000704710F1000F91EA030F58BF994208BF55
:103E600090422CBFD8176FEAE37040F00100704712
:103E70004FEA410C7FEA6C5C02D150EA013C07D169
:103E80004FEA430C7FEA6C5CD6D152EA033CD3D0B4
:103E90005DF8040B704700BF8446104662468C46AE
:103EA0001946634600E000BF01B5FFF7B7FF0028E1
:103EB00048BF10F1000F01BD4DF808EDFFF7F4FF0A
:103EC0000CBF012000205DF808FB00BF4DF808ED95
:103ED000FFF7EAFF34BF012000205DF808FB00BFB8
:103EE0004DF808EDFFF7E0FF94BF012000205DF8DA
:103EF00008FB00BF4DF808EDFFF7CEFF94BF01208F
:103F000000205DF808FB00BF4DF808EDFFF7C4FF87
:103F100034BF012000205DF808FB00BF80F00040A6
:103F200002E000BF81F0004142001FBF5FEA410391
:103F300092EA030F7FEA226C7FEA236C6AD04FEA91
:103F40001262D2EB1363C1BFD218414048404140D6
:103F5000B8BF5B42192B88BF704710F0004F40F488
:103F6000000020F07F4018BF404211F0004F41F4A4
:103F7000000121F07F4118BF494292EA030F3FD070
:103F8000A2F1010241FA03FC10EB0C00C3F1200383
:103F900001FA03F100F0004302D5494260EB400012
:103FA000B0F5000F13D3B0F1807F06D340084FEA7D
:103FB000310102F10102FE2A51D2B1F1004F40EB72
:103FC000C25008BF20F0010040EA030070474900DA
:103FD00040EB000010F4000FA2F10102EDD1B0FAA5
:103FE00080FCACF1080CB2EB0C0200FA0CF0AABF9A
:103FF00000EBC25052421843BCBFD0401843704738
:1040000092F0000F81F4000106BF80F4000001323D
:10401000013BB5E74FEA41037FEA226C18BF7FEA14
:10402000236C21D092EA030F04D092F0000F08BF56
:104030000846704790EA010F1CBF0020704712F03D
:104040007F4F04D1400028BF40F00040704712F17C
:1040500000723CBF00F50000704700F0004343F0E1
:10406000FE4040F4000070477FEA226216BF084617
:104070007FEA23630146420206BF5FEA412390EADA
:10408000010F40F4800070474FF0000304E000BFD0
:1040900010F0004348BF40425FEA000C08BF704781
:1040A00043F0964301464FF000001CE050EA010245
:1040B00008BF70474FF000030AE000BF50EA01025A
:1040C00008BF704711F0004302D5404261EB410147
:1040D0005FEA010C02BF84460146002043F0B6436C
:1040E00008BFA3F18053A3F50003BCFA8CF2083A91
:1040F000A3EBC25310DB01FA02FC634400FA02FC9A
:10410000C2F12002BCF1004F20FA02F243EB0200A0
:1041100008BF20F00100704702F1200201FA02FC02
:10412000C2F1200250EA4C0021FA02F243EB0200F5
:1041300008BF20EADC707047014B1868704700BF69
:10414000B800002010B50023934203D0CC5CC454C7
:104150000133F9E710BD00000EB400B54FF4027151
:104160009CB0ADF814106FF00041049107914FF628
:10417000FF711DABADF81610084953F8042B0290DF
:104180000690086802A9019300F06EF8029B0022D5
:104190001A701CB05DF804EB03B07047B800002043
:1041A000034613F8012B002AFBD1181A0138704777
:1041B0002DE9F0478D688146AB420C4692461F467A
:1041C00043D38B8913F4906F3DD02668096902228E
:1041D000C1EB0608666906EB460696FBF2F608F1A7
:1041E00001023A44964238BF16465B050FD5314668
:1041F00000F054FB054698B121694246FFF7A2FF43
:10420000A38923F4906343F08003A38113E0324633
:1042100000F098FB054670B94846216900F0FAFAAB
:104220000C23C9F80030A3894FF0FF3043F040035E
:10423000A381BDE8F087256166614544C8EB0606A9
:104240002560A6603D46AF4200D23D462A46206822
:10425000514600F0C3FAA36800205B1BA3602368EB
:104260001D442560BDE8F0872DE9F0439DB0039320
:104270008B8907461C060D4616460CD50B6953B9AB
:10428000402100F00BFB2860286110B90C233B6033
:10429000C7E040236B610023099320238DF8293068
:1042A00030238DF82A3033461C4613F8012B1AB9F7
:1042B000B4EB06090FD002E0252AF5D1F8E738461D
:1042C000294632464B46FFF773FF013000F0A480C9
:1042D000099B4B4409932378002B00F09D80002319
:1042E0004FF0FF3204930793059206938DF85330F5
:1042F0001A9304F101094D4E4C46304621780522AF
:1043000000F05EFA09F10109049B28B1861B012027
:10431000B04003430493EEE7D90644BF20228DF852
:1043200053201A0744BF2B228DF8532022782A2AC3
:1043300002D0079B21460EE0039A111D12680391DB
:10434000002A01DB079204E0524243F00203079285
:10435000049301340AE00C4622780131303A092AEC
:1043600003D80A2000FB0323F5E7079323782E2BBD
:1043700019D163782A2B09D1039B02341A1D1B68BB
:104380000392002BB8BF4FF0FF330BE0611C0023FA
:104390000C4622780131303A092A03D80A2000FB62
:1043A0000323F5E70593224E21783046032200F0DF
:1043B00007FA30B1861B4020B040049B0134034310
:1043C000049321781B480622661C8DF8281000F003
:1043D000F7F988B1184B33B9039B073323F0070370
:1043E0000833039314E003AB0093384604A92A462C
:1043F000124BAFF3008007E003AB0093384604A9EB
:104400002A460E4B00F08EF8B0F1FF3F804603D0F5
:10441000099B4344099346E7AB895B0601D409989D
:1044200001E04FF0FF301DB0BDE8F083C64B00083F
:10443000CC4B0008D04B000800000000B141000840
:104440002DE9F84315461F468A680B6906469A42CD
:10445000A8BF13462B6091F843200C46DDF820805E
:104460000AB101332B602368990602D52B68023309
:104470002B60236813F006091DD094F8433022689E
:10448000003318BF012392061FD5E118302081F8B0
:1044900043005A1C94F845102244023382F843101A
:1044A00013E03046394604F119020123C0470130B8
:1044B00007D009F10109E2682B68D31A9945F0DBAE
:1044C000DBE74FF0FF30BDE8F8833046394604F1B2
:1044D0004302C0470130F4D023682A6803F0060382
:1044E000E168042B08BFC2EB01052369A2680CBF79
:1044F00025EAE57500259A42C4BFC3EB0203ED1817
:104500004FF00009A9450ADA3046394604F11A028B
:104510000123C0470130D4D009F10109F2E700209E
:10452000BDE8F8832DE9FF470E7E80466E2E0C46CF
:1045300091469A460C9D01F1430000F0A58011D8E8
:10454000632E22D009D8002E00F0AF80582E40F004
:10455000BF8081F845607B4A4FE0642E1ED0692EF3
:104560001CD0B5E0732E00F0A48009D86F2E2BD09C
:10457000702E40F0AD800B6843F020030B6038E0F4
:10458000752E21D0782E34D0A2E02B6801F142079D
:104590001A1D1B682A6081F842309DE022682B6852
:1045A00012F0800F03D01A1D2A601D6805E0510625
:1045B000F9D51A1D2A60B3F90050002D39DA2D23E0
:1045C0006D4284F8433034E022682B6812F0800F8B
:1045D00003D01A1D2A601D6804E05206F9D51A1D81
:1045E0002A601D88237E574A6F2B14BF0A23082395
:1045F0001BE07823544A84F845302368296813F077
:10460000800F01F104062E6001D00D6802E05F0604
:10461000FBD50D88DE0744BF43F0200323601DB99E
:10462000236823F0200323601023002184F8431023
:1046300001E0444A0A236668002EA66003DB216875
:1046400021F00401216005B96EB104F14201B5FB0E
:10465000F3F603FB1655555D0F4601F80159354633
:10466000002EF4D100E00746082B0AD12368DD07AD
:1046700007D5626823699A4203DC302307F8013CBE
:10468000013FC01B20612CE009682B6811F0800FEE
:10469000626904D0191D29601B681A6005E049068B
:1046A000F8D5191D29601B681A800023236107466D
:1046B00017E02B681A1D2A601F683846FFF770FD47
:1046C00063682061984288BF23612369636005E0C5
:1046D00004F1420784F8426001232361002384F837
:1046E0004330CDF800A04046214603AA4B46FFF7D1
:1046F000A7FE013002D14FF0FF301FE0404649468F
:104700003A462369D0470130F5D023689B0705D48A
:10471000E068039B9842B8BF18460FE00025E268A6
:10472000039BD31A9D42F3DA4046494604F119022D
:104730000123D0470130DED00135F0E704B0BDE8F9
:10474000F08700BFD74B0008E84B000830B5141EB7
:104750009BB0054604DA8B2303604FF0FF301CE06A
:104760004FF4027200910491ADF80C2014BF04F1D3
:10477000FF3121464FF6FF7202910591ADF80E20F0
:1047800069461A461E9BFFF76FFD431CBCBF8B2377
:104790002B6014B1009B00221A701BB030BD0000CA
:1047A00073B50093054B06460D461446186831460E
:1047B0002A462346FFF7CAFF02B070BDB8000020AA
:1047C00010B5C9B202449042034605D01C780130AE
:1047D0008C42F8D1184610BD002010BD814270B542
:1047E00001D300230EE08C18A042FAD2851813469C
:1047F00013F1FF3305D351426618F65C2944CE54B9
:10480000F6E770BD934203D0CC5CC4540133F9E7A2
:1048100070BD000030B500293CD051F8042C0B1FAE
:104820001D49002AB8BF9B180A680C4612B95A6085
:104830000B6030BD93420DD219685818904203D1D5
:104840005A581144426819605A60236030BD994239
:1048500003D80A4651680029F9D1146815199D42F8
:104860000AD11B682344D0188842136012D108680B
:10487000034413604B680CE002D90C23036030BD85
:1048800018681C188C4203D10C68496820441860D1
:104890005960536030BD00BFB40E002070B5CD1C10
:1048A00025F0030508350C2D38BF0C25002D0646D4
:1048B0003FDB8D423DD3214B1C6818462146A1B1F8
:1048C0000B685B1B0ED40B2B03D90B60CC18CD509F
:1048D0001FE08C4202D1626802601AE04B6863609C
:1048E0000C4616E00C464968E9E7154C23681BB9ED
:1048F000304600F04DF820602946304600F048F878
:10490000431C014615D0C41C24F0030484420AD180
:10491000256004F10B00231D20F00700C31A0BD003
:104920005A42E25070BD3046611A00F031F8013051
:10493000EED10C233360002070BD00BFB40E002008
:10494000B00E0020F8B5064614460D4621B91146B2
:10495000BDE8F840FFF7A2BF1AB9FFF75BFF20469A
:10496000F8BD00F025F8A0420ED230462146FFF7F0
:1049700095FF074650B129462246FFF7E3FB304634
:104980002946FFF747FF01E02846F8BD3846F8BD45
:1049900038B5064C0023054608462360FDF7C2F9EA
:1049A000431C02D1236803B12B6038BDB80E002030
:1049B00051F8040C002802DA04390B581844043862
:1049C0007047000002030405060708090A0B0C0DD6
:1049D0000E0F101001020000537461636B206672A9
:1049E000616D653A0A000000205230203D202025EC
:1049F0003038580A00000000205231203D20202588
:104A00003038580A00000000205232203D20202576
:104A10003038580A00000000205233203D20202565
:104A20003038580A0000000020523132203D202545
:104A30003038580A00000000204C52203D2020252C
:104A40003038580A00000000205043203D20202527
:104A50003038580A0000000020505352203D2025D5
:104A60003038580A000000004653522F4641523A4F
:104A70000A0000002043465352203D2020253038B4
:104A8000580A00002048465352203D202025303847
:104A9000580A00002044465352203D20202530383B
:104AA000580A00002041465352203D20202530382E
:104AB000580A0000204D4D464152203D20253038F7
:104AC000580A00002042464152203D20202530381F
:104AD000580A00004D6973630A000000204C522FF1
:104AE0004558435F52455455524E3D202530385865
:104AF0000A0000005B486172644661756C745D0A6F
:104B0000000000005B4275734661756C745D0A00BD
:104B10005B55736167654661756C745D0A000000E2
:104B2000000000000000000001020304060708095D
:104B300000000000010203040A0D25753A200A0D49
:104B400052727464203D2025640A0D0052415720A2
:104B50003D2025640A0D000054727464203D202518
:104B6000640A0D00496E6974696174696E67205446
:104B7000656D7065726174757265206D65617375C0
:104B800072656D656E740A0D000000005265616407
:104B9000696E6720646F6E650A0D00002E2E2F73FC
:104BA00072632F6D61696E2E63000000526561644F
:104BB000207461736B00000049444C450000000004
:104BC0006C6F67004300232D302B2000686C4C0075
:104BD00065666745464700303132333435363738FD
:104BE000394142434445460030313233343536375B
:094BF000383961626364656600F6
:104BFC0078563412D00000200000000000A24A04B5
:104C0C0080C20000000C014000080140001001406F
:104C1C0000100140000C0140000C01400008014054
:104C2C000008014000100140000C01400100400050
:104C3C000040002002000010100002000080200044
:104C4C00AAAAAAAA010000000000000000000000AF
:104C5C000000000000000000000000000000000048
:104C6C000000000000000000C44B00080000000021
:104C7C000000000000000000000000000000000028
:104C8C000000000000000000000000000000000018
:104C9C000000000000000000000000000000000008
:104CAC0000000000000000005800002032547698EC
:040000050800010DE1
:00000001FF
